{
  "_format": "hh3-artifact-1",
  "contractName": "RevenueDistribution",
  "sourceName": "contracts/revenue/RevenueDistribution.sol",
  "abi": [
    {
      "inputs": [],
      "name": "AccessControlBadConfirmation",
      "type": "error"
    },
    {
      "inputs": [
        {
          "internalType": "address",
          "name": "account",
          "type": "address"
        },
        {
          "internalType": "bytes32",
          "name": "neededRole",
          "type": "bytes32"
        }
      ],
      "name": "AccessControlUnauthorizedAccount",
      "type": "error"
    },
    {
      "inputs": [],
      "name": "ApprovalFailed",
      "type": "error"
    },
    {
      "inputs": [],
      "name": "InsufficientBalance",
      "type": "error"
    },
    {
      "inputs": [],
      "name": "InsufficientLiquidityAdded",
      "type": "error"
    },
    {
      "inputs": [],
      "name": "InvalidAmount",
      "type": "error"
    },
    {
      "inputs": [],
      "name": "InvalidFundsWithdrawn",
      "type": "error"
    },
    {
      "inputs": [],
      "name": "InvalidInitialization",
      "type": "error"
    },
    {
      "inputs": [],
      "name": "InvalidRatio",
      "type": "error"
    },
    {
      "inputs": [],
      "name": "InvalidReserves",
      "type": "error"
    },
    {
      "inputs": [],
      "name": "InvalidToken",
      "type": "error"
    },
    {
      "inputs": [],
      "name": "MarketingAddressNotSet",
      "type": "error"
    },
    {
      "inputs": [],
      "name": "NotAdmin",
      "type": "error"
    },
    {
      "inputs": [],
      "name": "NotInitializing",
      "type": "error"
    },
    {
      "inputs": [],
      "name": "PairNotFound",
      "type": "error"
    },
    {
      "inputs": [],
      "name": "PaymentFailed",
      "type": "error"
    },
    {
      "inputs": [],
      "name": "ProjectTokenAddressNotSet",
      "type": "error"
    },
    {
      "inputs": [],
      "name": "ReentrancyGuardReentrantCall",
      "type": "error"
    },
    {
      "inputs": [],
      "name": "RouterAddressNotSet",
      "type": "error"
    },
    {
      "inputs": [
        {
          "internalType": "address",
          "name": "token",
          "type": "address"
        }
      ],
      "name": "SafeERC20FailedOperation",
      "type": "error"
    },
    {
      "inputs": [],
      "name": "StakingAddressNotSet",
      "type": "error"
    },
    {
      "inputs": [],
      "name": "SubscriptionsAddressNotSet",
      "type": "error"
    },
    {
      "inputs": [],
      "name": "SwapFailed",
      "type": "error"
    },
    {
      "inputs": [],
      "name": "TokenCannotBeZeroAddress",
      "type": "error"
    },
    {
      "inputs": [],
      "name": "TreasuryAddressNotSet",
      "type": "error"
    },
    {
      "inputs": [],
      "name": "USDTAddressNotSet",
      "type": "error"
    },
    {
      "inputs": [],
      "name": "ZeroReserves",
      "type": "error"
    },
    {
      "anonymous": false,
      "inputs": [
        {
          "indexed": false,
          "internalType": "uint64",
          "name": "version",
          "type": "uint64"
        }
      ],
      "name": "Initialized",
      "type": "event"
    },
    {
      "anonymous": false,
      "inputs": [
        {
          "indexed": true,
          "internalType": "bytes32",
          "name": "role",
          "type": "bytes32"
        },
        {
          "indexed": true,
          "internalType": "bytes32",
          "name": "previousAdminRole",
          "type": "bytes32"
        },
        {
          "indexed": true,
          "internalType": "bytes32",
          "name": "newAdminRole",
          "type": "bytes32"
        }
      ],
      "name": "RoleAdminChanged",
      "type": "event"
    },
    {
      "anonymous": false,
      "inputs": [
        {
          "indexed": true,
          "internalType": "bytes32",
          "name": "role",
          "type": "bytes32"
        },
        {
          "indexed": true,
          "internalType": "address",
          "name": "account",
          "type": "address"
        },
        {
          "indexed": true,
          "internalType": "address",
          "name": "sender",
          "type": "address"
        }
      ],
      "name": "RoleGranted",
      "type": "event"
    },
    {
      "anonymous": false,
      "inputs": [
        {
          "indexed": true,
          "internalType": "bytes32",
          "name": "role",
          "type": "bytes32"
        },
        {
          "indexed": true,
          "internalType": "address",
          "name": "account",
          "type": "address"
        },
        {
          "indexed": true,
          "internalType": "address",
          "name": "sender",
          "type": "address"
        }
      ],
      "name": "RoleRevoked",
      "type": "event"
    },
    {
      "inputs": [],
      "name": "DEFAULT_ADMIN_ROLE",
      "outputs": [
        {
          "internalType": "bytes32",
          "name": "",
          "type": "bytes32"
        }
      ],
      "stateMutability": "view",
      "type": "function"
    },
    {
      "inputs": [],
      "name": "_USDT",
      "outputs": [
        {
          "internalType": "contract IERC20Burnable",
          "name": "",
          "type": "address"
        }
      ],
      "stateMutability": "view",
      "type": "function"
    },
    {
      "inputs": [],
      "name": "_burnPercent",
      "outputs": [
        {
          "internalType": "uint256",
          "name": "",
          "type": "uint256"
        }
      ],
      "stateMutability": "view",
      "type": "function"
    },
    {
      "inputs": [],
      "name": "_liquidityPercent",
      "outputs": [
        {
          "internalType": "uint256",
          "name": "",
          "type": "uint256"
        }
      ],
      "stateMutability": "view",
      "type": "function"
    },
    {
      "inputs": [],
      "name": "_marketingAddress",
      "outputs": [
        {
          "internalType": "address",
          "name": "",
          "type": "address"
        }
      ],
      "stateMutability": "view",
      "type": "function"
    },
    {
      "inputs": [],
      "name": "_marketingPercent",
      "outputs": [
        {
          "internalType": "uint256",
          "name": "",
          "type": "uint256"
        }
      ],
      "stateMutability": "view",
      "type": "function"
    },
    {
      "inputs": [],
      "name": "_projectToken",
      "outputs": [
        {
          "internalType": "contract IERC20Burnable",
          "name": "",
          "type": "address"
        }
      ],
      "stateMutability": "view",
      "type": "function"
    },
    {
      "inputs": [],
      "name": "_router",
      "outputs": [
        {
          "internalType": "contract IUniswapV2Router02",
          "name": "",
          "type": "address"
        }
      ],
      "stateMutability": "view",
      "type": "function"
    },
    {
      "inputs": [],
      "name": "_stablesRatio",
      "outputs": [
        {
          "internalType": "uint256",
          "name": "",
          "type": "uint256"
        }
      ],
      "stateMutability": "view",
      "type": "function"
    },
    {
      "inputs": [],
      "name": "_stakingAddress",
      "outputs": [
        {
          "internalType": "address",
          "name": "",
          "type": "address"
        }
      ],
      "stateMutability": "view",
      "type": "function"
    },
    {
      "inputs": [],
      "name": "_stakingPercent",
      "outputs": [
        {
          "internalType": "uint256",
          "name": "",
          "type": "uint256"
        }
      ],
      "stateMutability": "view",
      "type": "function"
    },
    {
      "inputs": [],
      "name": "_subscriptions",
      "outputs": [
        {
          "internalType": "contract ISubscriptions",
          "name": "",
          "type": "address"
        }
      ],
      "stateMutability": "view",
      "type": "function"
    },
    {
      "inputs": [],
      "name": "_treasuryAddress",
      "outputs": [
        {
          "internalType": "address",
          "name": "",
          "type": "address"
        }
      ],
      "stateMutability": "view",
      "type": "function"
    },
    {
      "inputs": [],
      "name": "_treasuryPercent",
      "outputs": [
        {
          "internalType": "uint256",
          "name": "",
          "type": "uint256"
        }
      ],
      "stateMutability": "view",
      "type": "function"
    },
    {
      "inputs": [],
      "name": "distributeRevenue",
      "outputs": [],
      "stateMutability": "nonpayable",
      "type": "function"
    },
    {
      "inputs": [
        {
          "internalType": "uint256",
          "name": "_amount",
          "type": "uint256"
        }
      ],
      "name": "getProjectTokenDistribution",
      "outputs": [
        {
          "components": [
            {
              "internalType": "uint256",
              "name": "staking",
              "type": "uint256"
            },
            {
              "internalType": "uint256",
              "name": "burn",
              "type": "uint256"
            },
            {
              "internalType": "uint256",
              "name": "treasury",
              "type": "uint256"
            }
          ],
          "internalType": "struct IRevenueDistribution.ProjectTokenDistribution",
          "name": "",
          "type": "tuple"
        }
      ],
      "stateMutability": "pure",
      "type": "function"
    },
    {
      "inputs": [
        {
          "internalType": "uint256",
          "name": "_amount",
          "type": "uint256"
        }
      ],
      "name": "getRequiredTokenForLiquidity",
      "outputs": [
        {
          "internalType": "uint256",
          "name": "",
          "type": "uint256"
        }
      ],
      "stateMutability": "view",
      "type": "function"
    },
    {
      "inputs": [
        {
          "internalType": "bytes32",
          "name": "role",
          "type": "bytes32"
        }
      ],
      "name": "getRoleAdmin",
      "outputs": [
        {
          "internalType": "bytes32",
          "name": "",
          "type": "bytes32"
        }
      ],
      "stateMutability": "view",
      "type": "function"
    },
    {
      "inputs": [],
      "name": "getUSDTDistribution",
      "outputs": [
        {
          "components": [
            {
              "internalType": "uint256",
              "name": "marketing",
              "type": "uint256"
            },
            {
              "internalType": "uint256",
              "name": "liquidity",
              "type": "uint256"
            },
            {
              "internalType": "uint256",
              "name": "buyback",
              "type": "uint256"
            }
          ],
          "internalType": "struct IRevenueDistribution.USDTDistribution",
          "name": "",
          "type": "tuple"
        }
      ],
      "stateMutability": "view",
      "type": "function"
    },
    {
      "inputs": [
        {
          "internalType": "bytes32",
          "name": "role",
          "type": "bytes32"
        },
        {
          "internalType": "address",
          "name": "account",
          "type": "address"
        }
      ],
      "name": "grantRole",
      "outputs": [],
      "stateMutability": "nonpayable",
      "type": "function"
    },
    {
      "inputs": [
        {
          "internalType": "bytes32",
          "name": "role",
          "type": "bytes32"
        },
        {
          "internalType": "address",
          "name": "account",
          "type": "address"
        }
      ],
      "name": "hasRole",
      "outputs": [
        {
          "internalType": "bool",
          "name": "",
          "type": "bool"
        }
      ],
      "stateMutability": "view",
      "type": "function"
    },
    {
      "inputs": [
        {
          "internalType": "address",
          "name": "admin",
          "type": "address"
        }
      ],
      "name": "initialize",
      "outputs": [],
      "stateMutability": "nonpayable",
      "type": "function"
    },
    {
      "inputs": [
        {
          "internalType": "bytes32",
          "name": "role",
          "type": "bytes32"
        },
        {
          "internalType": "address",
          "name": "callerConfirmation",
          "type": "address"
        }
      ],
      "name": "renounceRole",
      "outputs": [],
      "stateMutability": "nonpayable",
      "type": "function"
    },
    {
      "inputs": [
        {
          "internalType": "bytes32",
          "name": "role",
          "type": "bytes32"
        },
        {
          "internalType": "address",
          "name": "account",
          "type": "address"
        }
      ],
      "name": "revokeRole",
      "outputs": [],
      "stateMutability": "nonpayable",
      "type": "function"
    },
    {
      "inputs": [
        {
          "internalType": "address",
          "name": "_address",
          "type": "address"
        }
      ],
      "name": "setMarketingAddress",
      "outputs": [],
      "stateMutability": "nonpayable",
      "type": "function"
    },
    {
      "inputs": [
        {
          "internalType": "address",
          "name": "_address",
          "type": "address"
        }
      ],
      "name": "setProjectToken",
      "outputs": [],
      "stateMutability": "nonpayable",
      "type": "function"
    },
    {
      "inputs": [
        {
          "internalType": "address",
          "name": "_address",
          "type": "address"
        }
      ],
      "name": "setRouter",
      "outputs": [],
      "stateMutability": "nonpayable",
      "type": "function"
    },
    {
      "inputs": [
        {
          "internalType": "address",
          "name": "_address",
          "type": "address"
        }
      ],
      "name": "setStakingAddress",
      "outputs": [],
      "stateMutability": "nonpayable",
      "type": "function"
    },
    {
      "inputs": [
        {
          "internalType": "address",
          "name": "_address",
          "type": "address"
        }
      ],
      "name": "setSubscriptionsContractAddress",
      "outputs": [],
      "stateMutability": "nonpayable",
      "type": "function"
    },
    {
      "inputs": [
        {
          "internalType": "address",
          "name": "_address",
          "type": "address"
        }
      ],
      "name": "setTreasuryAddress",
      "outputs": [],
      "stateMutability": "nonpayable",
      "type": "function"
    },
    {
      "inputs": [
        {
          "internalType": "address",
          "name": "_address",
          "type": "address"
        }
      ],
      "name": "setUSDTAddress",
      "outputs": [],
      "stateMutability": "nonpayable",
      "type": "function"
    },
    {
      "inputs": [
        {
          "internalType": "bytes4",
          "name": "interfaceId",
          "type": "bytes4"
        }
      ],
      "name": "supportsInterface",
      "outputs": [
        {
          "internalType": "bool",
          "name": "",
          "type": "bool"
        }
      ],
      "stateMutability": "view",
      "type": "function"
    }
  ],
  "bytecode": "0x61014060405260286080819052601460a05260c052603260e081905261010081905261012052348015610030575f5ffd5b5060805160a05160c05160e0516101005161012051611fb06100a95f395f818161029f015281816105690152610cff01525f81816102180152610d7f01525f81816103890152610d3f01525f818161034f01526105b301525f818161040e015261062e01525f818161024d01526105f30152611fb05ff3fe608060405234801561000f575f5ffd5b50600436106101e7575f3560e01c8063906e9dd011610109578063c0d786551161009e578063ecd1d70e1161006e578063ecd1d70e1461049e578063edae876f146104b1578063efe9c9e2146104c4578063f4e0d9ac146104d7575f5ffd5b8063c0d7865514610452578063c4d66de814610465578063caac793414610478578063d547741f1461048b575f5ffd5b80639c05e787116100d95780639c05e787146104095780639fb2843214610430578063a217fddf14610438578063b5ee0ded1461043f575f5ffd5b8063906e9dd0146103bd57806391d14854146103d057806399838796146103e35780639bbaf128146103f6575f5ffd5b80632f2ff15d1161017f5780635e017f441161014f5780635e017f441461034a5780636605bfda14610371578063770d9907146103845780638743da6d146103ab575f5ffd5b80632f2ff15d146102fe57806336568abe14610311578063424253ba1461032457806355eba86814610337575f5ffd5b80631979c0b2116101ba5780631979c0b21461029a578063248a9ca3146102c15780632b327e8d146102d45780632d07953a146102f4575f5ffd5b806301ffc9a7146101eb57806308b3110c146102135780630dfe2a8314610248578063102fdfbd1461026f575b5f5ffd5b6101fe6101f9366004611be4565b6104ea565b60405190151581526020015b60405180910390f35b61023a7f000000000000000000000000000000000000000000000000000000000000000081565b60405190815260200161020a565b61023a7f000000000000000000000000000000000000000000000000000000000000000081565b600654610282906001600160a01b031681565b6040516001600160a01b03909116815260200161020a565b61023a7f000000000000000000000000000000000000000000000000000000000000000081565b61023a6102cf366004611c12565b610520565b6102e76102e2366004611c12565b610540565b60405161020a9190611c29565b6102fc610666565b005b6102fc61030c366004611c5e565b610886565b6102fc61031f366004611c5e565b6108a8565b61023a610332366004611c12565b6108e0565b6102fc610345366004611c8c565b610b89565b61023a7f000000000000000000000000000000000000000000000000000000000000000081565b6102fc61037f366004611c8c565b610bb4565b61023a7f000000000000000000000000000000000000000000000000000000000000000081565b5f54610282906001600160a01b031681565b6102fc6103cb366004611c8c565b610bde565b6101fe6103de366004611c5e565b610c09565b6102fc6103f1366004611c8c565b610c3f565b600454610282906001600160a01b031681565b61023a7f000000000000000000000000000000000000000000000000000000000000000081565b6102e7610c6a565b61023a5f81565b600254610282906001600160a01b031681565b6102fc610460366004611c8c565b610dbd565b6102fc610473366004611c8c565b610de8565b600154610282906001600160a01b031681565b6102fc610499366004611c5e565b610ef3565b600354610282906001600160a01b031681565b600554610282906001600160a01b031681565b6102fc6104d2366004611c8c565b610f0f565b6102fc6104e5366004611c8c565b610f3a565b5f6001600160e01b03198216637965db0b60e01b148061051a57506301ffc9a760e01b6001600160e01b03198316145b92915050565b5f9081525f516020611f5b5f395f51905f52602052604090206001015490565b61056160405180606001604052805f81526020015f81526020015f81525090565b5f606461058e7f000000000000000000000000000000000000000000000000000000000000000082611cbb565b6105989085611cce565b6105a29190611ce5565b9050604051806060016040528060647f0000000000000000000000000000000000000000000000000000000000000000846105dd9190611cce565b6105e79190611ce5565b815260200160646106187f000000000000000000000000000000000000000000000000000000000000000085611cce565b6106229190611ce5565b815260200160646106537f000000000000000000000000000000000000000000000000000000000000000085611cce565b61065d9190611ce5565b90529392505050565b61066e610f65565b6106785f33610c09565b61069557604051637bfa4b9f60e01b815260040160405180910390fd5b6003546001600160a01b03166106be5760405163871b97a560e01b815260040160405180910390fd5b6004546001600160a01b03166106e757604051630aa0ab2f60e21b815260040160405180910390fd5b6005546001600160a01b031661071057604051630f6e3db960e41b815260040160405180910390fd5b6006546001600160a01b0316610739576040516353aa159960e01b815260040160405180910390fd5b5f546001600160a01b03166107615760405163f726ee2d60e01b815260040160405180910390fd5b6001546001600160a01b031661078a576040516339b4afab60e11b815260040160405180910390fd5b6002546001600160a01b03166107b357604051632b9aa91160e01b815260040160405180910390fd5b6107bb610faf565b6107d8576040516361617ee760e01b815260040160405180910390fd5b5f6107e1610c6a565b905080604001515f14806107f457508051155b8061080157506020810151155b1561081f5760405163162908e360e11b815260040160405180910390fd5b5f61082d8260400151611077565b905061083b825f015161129f565b61084c61084782610540565b611355565b6108598260200151611519565b505061088460017f9b779b17422d0df92223018b32b4d1fa46e071723d6817e2486d003becc55f0055565b565b61088f82610520565b61089881611842565b6108a2838361184c565b50505050565b6001600160a01b03811633146108d15760405163334bd91960e11b815260040160405180910390fd5b6108db82826118ed565b505050565b5f815f036109015760405163162908e360e11b815260040160405180910390fd5b6005546040805163c45a015560e01b815290515f926001600160a01b03169163c45a01559160048083019260209291908290030181865afa158015610948573d5f5f3e3d5ffd5b505050506040513d601f19601f8201168201806040525081019061096c9190611d04565b6003546004805460405163e6a4390560e01b81526001600160a01b0393841692810192909252821660248201529192505f919083169063e6a4390590604401602060405180830381865afa1580156109c6573d5f5f3e3d5ffd5b505050506040513d601f19601f820116820180604052508101906109ea9190611d04565b90506001600160a01b038116610a135760405163d719ab6960e01b815260040160405180910390fd5b5f8190505f5f826001600160a01b0316630902f1ac6040518163ffffffff1660e01b8152600401606060405180830381865afa158015610a55573d5f5f3e3d5ffd5b505050506040513d601f19601f82011682018060405250810190610a799190611d3a565b5091509150816001600160701b03165f1480610a9c57506001600160701b038116155b15610aba57604051636e5e779f60e11b815260040160405180910390fd5b60035460408051630dfe168160e01b815290516001600160a01b0392831692861691630dfe16819160048083019260209291908290030181865afa158015610b04573d5f5f3e3d5ffd5b505050506040513d601f19601f82011682018060405250810190610b289190611d04565b6001600160a01b031603610b6a57816001600160701b0316816001600160701b031688610b559190611cce565b610b5f9190611ce5565b979650505050505050565b806001600160701b0316826001600160701b031688610b559190611cce565b610b9281611966565b600380546001600160a01b0319166001600160a01b0392909216919091179055565b610bbd81611966565b5f80546001600160a01b0319166001600160a01b0392909216919091179055565b610be781611966565b600180546001600160a01b0319166001600160a01b0392909216919091179055565b5f9182525f516020611f5b5f395f51905f52602090815260408084206001600160a01b0393909316845291905290205460ff1690565b610c4881611966565b600680546001600160a01b0319166001600160a01b0392909216919091179055565b610c8b60405180606001604052805f81526020015f81526020015f81525090565b6003546040516370a0823160e01b81523060048201525f916001600160a01b0316906370a0823190602401602060405180830381865afa158015610cd1573d5f5f3e3d5ffd5b505050506040513d601f19601f82011682018060405250810190610cf59190611d86565b90505f6064610d247f000000000000000000000000000000000000000000000000000000000000000084611cce565b610d2e9190611ce5565b9050604051806060016040528060647f000000000000000000000000000000000000000000000000000000000000000084610d699190611cce565b610d739190611ce5565b81526020016064610da47f000000000000000000000000000000000000000000000000000000000000000085611cce565b610dae9190611ce5565b815260200161065d8385611cbb565b610dc681611966565b600580546001600160a01b0319166001600160a01b0392909216919091179055565b5f610df16119b4565b805490915060ff600160401b820416159067ffffffffffffffff165f81158015610e185750825b90505f8267ffffffffffffffff166001148015610e345750303b155b905081158015610e42575080155b15610e605760405163f92ee8a960e01b815260040160405180910390fd5b845467ffffffffffffffff191660011785558315610e8a57845460ff60401b1916600160401b1785555b610e926119dc565b610e9a6119e4565b610ea45f8761184c565b508315610eeb57845460ff60401b19168555604051600181527fc7f505b2f371ae2175ee4913f4499e1f2633a7b5936321eed1cdaeb6115181d29060200160405180910390a15b505050505050565b610efc82610520565b610f0581611842565b6108a283836118ed565b610f1881611966565b600480546001600160a01b0319166001600160a01b0392909216919091179055565b610f4381611966565b600280546001600160a01b0319166001600160a01b0392909216919091179055565b7f9b779b17422d0df92223018b32b4d1fa46e071723d6817e2486d003becc55f00805460011901610fa957604051633ee5aeb560e01b815260040160405180910390fd5b60029055565b6003545f906001600160a01b0316610fda57604051635f5d339960e01b815260040160405180910390fd5b6006546001600160a01b0316611003576040516353aa159960e01b815260040160405180910390fd5b60065460035460405163343a16d360e11b81526001600160a01b0391821660048201529116906368742da6906024016020604051808303815f875af115801561104e573d5f5f3e3d5ffd5b505050506040513d601f19601f820116820180604052508101906110729190611d9d565b905090565b6004545f906001600160a01b03166110a257604051635f5d339960e01b815260040160405180910390fd5b6003546001600160a01b03166110cb5760405163871b97a560e01b815260040160405180910390fd5b6005546001600160a01b03166110f457604051630f6e3db960e41b815260040160405180910390fd5b815f036111145760405163162908e360e11b815260040160405180910390fd5b600354600554611131916001600160a01b039081169116846119f4565b5f61113e4261012c611dbc565b6040805160028082526060820183529293505f929091602083019080368337505060035482519293506001600160a01b0316918391505f9061118257611182611de3565b6001600160a01b0392831660209182029290920101526004548251911690829060019081106111b3576111b3611de3565b6001600160a01b0392831660209182029290920101526005546040516338ed173960e01b81525f9291909116906338ed1739906111fc9088908590879030908a90600401611df7565b5f604051808303815f875af1158015611217573d5f5f3e3d5ffd5b505050506040513d5f823e601f3d908101601f1916820160405261123e9190810190611e67565b90508060018151811061125357611253611de3565b60200260200101515f0361127a5760405163081ceff360e41b815260040160405180910390fd5b8060018151811061128d5761128d611de3565b60200260200101519350505050919050565b805f036112bf5760405163162908e360e11b815260040160405180910390fd5b60035460015460405163a9059cbb60e01b81526001600160a01b0391821660048201526024810184905291169063a9059cbb906044016020604051808303815f875af1158015611311573d5f5f3e3d5ffd5b505050506040513d601f19601f820116820180604052508101906113359190611d9d565b611352576040516307a4ced160e51b815260040160405180910390fd5b50565b8051158061136557506020810151155b8061137257506040810151155b156113905760405163162908e360e11b815260040160405180910390fd5b60048054600254835160405163a9059cbb60e01b81526001600160a01b03928316948101949094526024840152169063a9059cbb906044016020604051808303815f875af11580156113e4573d5f5f3e3d5ffd5b505050506040513d601f19601f820116820180604052508101906114089190611d9d565b611425576040516307a4ced160e51b815260040160405180910390fd5b600480545f54604084810151905163a9059cbb60e01b81526001600160a01b03928316948101949094526024840152169063a9059cbb906044016020604051808303815f875af115801561147b573d5f5f3e3d5ffd5b505050506040513d601f19601f8201168201806040525081019061149f9190611d9d565b6114bc576040516307a4ced160e51b815260040160405180910390fd5b600480546020830151604051630852cd8d60e31b8152928301526001600160a01b0316906342966c68906024015f604051808303815f87803b158015611500575f5ffd5b505af1158015611512573d5f5f3e3d5ffd5b5050505050565b805f036115395760405163162908e360e11b815260040160405180910390fd5b6003546001600160a01b0316158061155a57506004546001600160a01b0316155b8061156e57506005546001600160a01b0316155b1561158c5760405163c1ab6dc160e01b815260040160405180910390fd5b5f611596826108e0565b600480546040516370a0823160e01b8152309281019290925291925082916001600160a01b0316906370a0823190602401602060405180830381865afa1580156115e2573d5f5f3e3d5ffd5b505050506040513d601f19601f820116820180604052508101906116069190611d86565b101561162557604051631e9acf1760e31b815260040160405180910390fd5b6003546040516370a0823160e01b815230600482015283916001600160a01b0316906370a0823190602401602060405180830381865afa15801561166b573d5f5f3e3d5ffd5b505050506040513d601f19601f8201168201806040525081019061168f9190611d86565b10156116ae57604051631e9acf1760e31b815260040160405180910390fd5b6003546005546116cb916001600160a01b039081169116846119f4565b6004546005546116e8916001600160a01b039081169116836119f4565b5f6116f54261012c611dbc565b6005546003546004549293505f92839283926001600160a01b039182169263e8e337009291821691168989606461172d826063611cce565b6117379190611ce5565b60646117448d6063611cce565b61174e9190611ce5565b6040516001600160e01b031960e089901b1681526001600160a01b03968716600482015295909416602486015260448501929092526064840152608483015260a48201523060c482015260e48101879052610104016060604051808303815f875af11580156117bf573d5f5f3e3d5ffd5b505050506040513d601f19601f820116820180604052508101906117e39190611f2f565b925092509250805f14806117f5575082155b806117fe575081155b15610eeb576040516347c3655560e01b815260040160405180910390fd5b60017f9b779b17422d0df92223018b32b4d1fa46e071723d6817e2486d003becc55f0055565b6113528133611aa7565b5f5f516020611f5b5f395f51905f526118658484610c09565b6118e4575f848152602082815260408083206001600160a01b03871684529091529020805460ff1916600117905561189a3390565b6001600160a01b0316836001600160a01b0316857f2f8788117e7eff1d82e926ec794901d17c78024a50270940304540a733656f0d60405160405180910390a4600191505061051a565b5f91505061051a565b5f5f516020611f5b5f395f51905f526119068484610c09565b156118e4575f848152602082815260408083206001600160a01b0387168085529252808320805460ff1916905551339287917ff6391f5c32d9c69d2a47ea670b442974b53935d1edc7fd64eb21e047a839171b9190a4600191505061051a565b6119705f33610c09565b61198d57604051637bfa4b9f60e01b815260040160405180910390fd5b6001600160a01b03811661135257604051635f5d339960e01b815260040160405180910390fd5b5f807ff0c57e16840df040f15088dc2f81fe391c3923bec73e23a9662efc9c229c6a0061051a565b610884611ae9565b6119ec611ae9565b610884611b0e565b604080516001600160a01b038416602482015260448082018490528251808303909101815260649091019091526020810180516001600160e01b031663095ea7b360e01b179052611a458482611b16565b6108a257604080516001600160a01b03851660248201525f6044808301919091528251808303909101815260649091019091526020810180516001600160e01b031663095ea7b360e01b179052611a9d908590611b5f565b6108a28482611b5f565b611ab18282610c09565b611ae55760405163e2517d3f60e01b81526001600160a01b0382166004820152602481018390526044015b60405180910390fd5b5050565b611af1611bcb565b61088457604051631afcd79f60e31b815260040160405180910390fd5b61181c611ae9565b5f5f5f5f60205f8651602088015f8a5af192503d91505f519050828015611b5557508115611b475780600114611b55565b5f866001600160a01b03163b115b9695505050505050565b5f5f60205f8451602086015f885af180611b7e576040513d5f823e3d81fd5b50505f513d91508115611b95578060011415611ba2565b6001600160a01b0384163b155b156108a257604051635274afe760e01b81526001600160a01b0385166004820152602401611adc565b5f611bd46119b4565b54600160401b900460ff16919050565b5f60208284031215611bf4575f5ffd5b81356001600160e01b031981168114611c0b575f5ffd5b9392505050565b5f60208284031215611c22575f5ffd5b5035919050565b8151815260208083015190820152604080830151908201526060810161051a565b6001600160a01b0381168114611352575f5ffd5b5f5f60408385031215611c6f575f5ffd5b823591506020830135611c8181611c4a565b809150509250929050565b5f60208284031215611c9c575f5ffd5b8135611c0b81611c4a565b634e487b7160e01b5f52601160045260245ffd5b8181038181111561051a5761051a611ca7565b808202811582820484141761051a5761051a611ca7565b5f82611cff57634e487b7160e01b5f52601260045260245ffd5b500490565b5f60208284031215611d14575f5ffd5b8151611c0b81611c4a565b80516001600160701b0381168114611d35575f5ffd5b919050565b5f5f5f60608486031215611d4c575f5ffd5b611d5584611d1f565b9250611d6360208501611d1f565b9150604084015163ffffffff81168114611d7b575f5ffd5b809150509250925092565b5f60208284031215611d96575f5ffd5b5051919050565b5f60208284031215611dad575f5ffd5b81518015158114611c0b575f5ffd5b8082018082111561051a5761051a611ca7565b634e487b7160e01b5f52604160045260245ffd5b634e487b7160e01b5f52603260045260245ffd5b5f60a0820187835286602084015260a0604084015280865180835260c0850191506020880192505f5b81811015611e475783516001600160a01b0316835260209384019390920191600101611e20565b50506001600160a01b039590951660608401525050608001529392505050565b5f60208284031215611e77575f5ffd5b815167ffffffffffffffff811115611e8d575f5ffd5b8201601f81018413611e9d575f5ffd5b805167ffffffffffffffff811115611eb757611eb7611dcf565b8060051b604051601f19603f830116810181811067ffffffffffffffff82111715611ee457611ee4611dcf565b604052918252602081840181019290810187841115611f01575f5ffd5b6020850194505b83851015611f2457845180825260209586019590935001611f08565b509695505050505050565b5f5f5f60608486031215611f41575f5ffd5b505081516020830151604090930151909492935091905056fe02dd7bc7dec4dceedda775e58dd541e08a116c6c53815c0bd028192f7b626800a2646970667358221220759ee8d00f6afa37ef9a9ed45fbd3aa135b1fa3143fc5ee0686f03b7918e7ebb64736f6c634300081c0033",
  "linkReferences": {},
  "deployedLinkReferences": {},
  "immutableReferences": {
    "2879": [
      {
        "length": 32,
        "start": 589
      },
      {
        "length": 32,
        "start": 1523
      }
    ],
    "2882": [
      {
        "length": 32,
        "start": 1038
      },
      {
        "length": 32,
        "start": 1582
      }
    ],
    "2885": [
      {
        "length": 32,
        "start": 847
      },
      {
        "length": 32,
        "start": 1459
      }
    ],
    "2888": [
      {
        "length": 32,
        "start": 905
      },
      {
        "length": 32,
        "start": 3391
      }
    ],
    "2891": [
      {
        "length": 32,
        "start": 536
      },
      {
        "length": 32,
        "start": 3455
      }
    ],
    "2894": [
      {
        "length": 32,
        "start": 671
      },
      {
        "length": 32,
        "start": 1385
      },
      {
        "length": 32,
        "start": 3327
      }
    ]
  },
  "inputSourceName": "project/contracts/revenue/RevenueDistribution.sol",
  "buildInfoId": "solc-0_8_28-463774cc766ff5381122911d3cab5bd5524f9cc3"
}