{
  "_format": "hh3-artifact-1",
  "contractName": "Subscriptions",
  "sourceName": "contracts/Subscriptions.sol",
  "abi": [
    {
      "inputs": [],
      "stateMutability": "nonpayable",
      "type": "constructor"
    },
    {
      "inputs": [],
      "name": "AccessControlBadConfirmation",
      "type": "error"
    },
    {
      "inputs": [
        {
          "internalType": "address",
          "name": "account",
          "type": "address"
        },
        {
          "internalType": "bytes32",
          "name": "neededRole",
          "type": "bytes32"
        }
      ],
      "name": "AccessControlUnauthorizedAccount",
      "type": "error"
    },
    {
      "inputs": [],
      "name": "DurationMustBeGreaterThanZero",
      "type": "error"
    },
    {
      "inputs": [],
      "name": "EnforcedPause",
      "type": "error"
    },
    {
      "inputs": [],
      "name": "ExpectedPause",
      "type": "error"
    },
    {
      "inputs": [],
      "name": "NotAdmin",
      "type": "error"
    },
    {
      "inputs": [],
      "name": "PaymentFailed",
      "type": "error"
    },
    {
      "inputs": [],
      "name": "PriceMustBeGreaterThanZero",
      "type": "error"
    },
    {
      "inputs": [],
      "name": "SubscriptionDoesNotExist",
      "type": "error"
    },
    {
      "inputs": [],
      "name": "UserHasSubscription",
      "type": "error"
    },
    {
      "anonymous": false,
      "inputs": [
        {
          "indexed": false,
          "internalType": "address",
          "name": "account",
          "type": "address"
        }
      ],
      "name": "Paused",
      "type": "event"
    },
    {
      "anonymous": false,
      "inputs": [
        {
          "indexed": true,
          "internalType": "bytes32",
          "name": "role",
          "type": "bytes32"
        },
        {
          "indexed": true,
          "internalType": "bytes32",
          "name": "previousAdminRole",
          "type": "bytes32"
        },
        {
          "indexed": true,
          "internalType": "bytes32",
          "name": "newAdminRole",
          "type": "bytes32"
        }
      ],
      "name": "RoleAdminChanged",
      "type": "event"
    },
    {
      "anonymous": false,
      "inputs": [
        {
          "indexed": true,
          "internalType": "bytes32",
          "name": "role",
          "type": "bytes32"
        },
        {
          "indexed": true,
          "internalType": "address",
          "name": "account",
          "type": "address"
        },
        {
          "indexed": true,
          "internalType": "address",
          "name": "sender",
          "type": "address"
        }
      ],
      "name": "RoleGranted",
      "type": "event"
    },
    {
      "anonymous": false,
      "inputs": [
        {
          "indexed": true,
          "internalType": "bytes32",
          "name": "role",
          "type": "bytes32"
        },
        {
          "indexed": true,
          "internalType": "address",
          "name": "account",
          "type": "address"
        },
        {
          "indexed": true,
          "internalType": "address",
          "name": "sender",
          "type": "address"
        }
      ],
      "name": "RoleRevoked",
      "type": "event"
    },
    {
      "anonymous": false,
      "inputs": [
        {
          "indexed": true,
          "internalType": "address",
          "name": "user",
          "type": "address"
        },
        {
          "indexed": false,
          "internalType": "uint256",
          "name": "timestamp",
          "type": "uint256"
        },
        {
          "components": [
            {
              "internalType": "string",
              "name": "name",
              "type": "string"
            },
            {
              "internalType": "uint256",
              "name": "price",
              "type": "uint256"
            },
            {
              "internalType": "uint256",
              "name": "duration",
              "type": "uint256"
            }
          ],
          "indexed": false,
          "internalType": "struct Subscriptions.Subscription",
          "name": "subscription",
          "type": "tuple"
        }
      ],
      "name": "Subscribed",
      "type": "event"
    },
    {
      "anonymous": false,
      "inputs": [
        {
          "indexed": false,
          "internalType": "address",
          "name": "account",
          "type": "address"
        }
      ],
      "name": "Unpaused",
      "type": "event"
    },
    {
      "inputs": [],
      "name": "ADMIN_ROLE",
      "outputs": [
        {
          "internalType": "bytes32",
          "name": "",
          "type": "bytes32"
        }
      ],
      "stateMutability": "view",
      "type": "function"
    },
    {
      "inputs": [],
      "name": "DEFAULT_ADMIN_ROLE",
      "outputs": [
        {
          "internalType": "bytes32",
          "name": "",
          "type": "bytes32"
        }
      ],
      "stateMutability": "view",
      "type": "function"
    },
    {
      "inputs": [],
      "name": "_payment",
      "outputs": [
        {
          "internalType": "contract ERC20",
          "name": "",
          "type": "address"
        }
      ],
      "stateMutability": "view",
      "type": "function"
    },
    {
      "inputs": [
        {
          "internalType": "uint256",
          "name": "",
          "type": "uint256"
        }
      ],
      "name": "_subscriptions",
      "outputs": [
        {
          "internalType": "string",
          "name": "name",
          "type": "string"
        },
        {
          "internalType": "uint256",
          "name": "price",
          "type": "uint256"
        },
        {
          "internalType": "uint256",
          "name": "duration",
          "type": "uint256"
        }
      ],
      "stateMutability": "view",
      "type": "function"
    },
    {
      "inputs": [
        {
          "internalType": "address",
          "name": "",
          "type": "address"
        }
      ],
      "name": "_userSubscriptions",
      "outputs": [
        {
          "internalType": "address",
          "name": "user",
          "type": "address"
        },
        {
          "internalType": "uint256",
          "name": "timestamp",
          "type": "uint256"
        },
        {
          "internalType": "uint256",
          "name": "expiresAt",
          "type": "uint256"
        },
        {
          "internalType": "uint256",
          "name": "subscription",
          "type": "uint256"
        }
      ],
      "stateMutability": "view",
      "type": "function"
    },
    {
      "inputs": [
        {
          "internalType": "string",
          "name": "name",
          "type": "string"
        },
        {
          "internalType": "uint256",
          "name": "price",
          "type": "uint256"
        },
        {
          "internalType": "uint256",
          "name": "duration",
          "type": "uint256"
        },
        {
          "internalType": "uint256",
          "name": "id",
          "type": "uint256"
        }
      ],
      "name": "createSubscription",
      "outputs": [],
      "stateMutability": "nonpayable",
      "type": "function"
    },
    {
      "inputs": [
        {
          "internalType": "bytes32",
          "name": "role",
          "type": "bytes32"
        }
      ],
      "name": "getRoleAdmin",
      "outputs": [
        {
          "internalType": "bytes32",
          "name": "",
          "type": "bytes32"
        }
      ],
      "stateMutability": "view",
      "type": "function"
    },
    {
      "inputs": [
        {
          "internalType": "uint256",
          "name": "id",
          "type": "uint256"
        }
      ],
      "name": "getSubscription",
      "outputs": [
        {
          "components": [
            {
              "internalType": "string",
              "name": "name",
              "type": "string"
            },
            {
              "internalType": "uint256",
              "name": "price",
              "type": "uint256"
            },
            {
              "internalType": "uint256",
              "name": "duration",
              "type": "uint256"
            }
          ],
          "internalType": "struct Subscriptions.Subscription",
          "name": "",
          "type": "tuple"
        }
      ],
      "stateMutability": "view",
      "type": "function"
    },
    {
      "inputs": [
        {
          "internalType": "bytes32",
          "name": "role",
          "type": "bytes32"
        },
        {
          "internalType": "address",
          "name": "account",
          "type": "address"
        }
      ],
      "name": "grantRole",
      "outputs": [],
      "stateMutability": "nonpayable",
      "type": "function"
    },
    {
      "inputs": [
        {
          "internalType": "bytes32",
          "name": "role",
          "type": "bytes32"
        },
        {
          "internalType": "address",
          "name": "account",
          "type": "address"
        }
      ],
      "name": "hasRole",
      "outputs": [
        {
          "internalType": "bool",
          "name": "",
          "type": "bool"
        }
      ],
      "stateMutability": "view",
      "type": "function"
    },
    {
      "inputs": [],
      "name": "paused",
      "outputs": [
        {
          "internalType": "bool",
          "name": "",
          "type": "bool"
        }
      ],
      "stateMutability": "view",
      "type": "function"
    },
    {
      "inputs": [
        {
          "internalType": "bytes32",
          "name": "role",
          "type": "bytes32"
        },
        {
          "internalType": "address",
          "name": "callerConfirmation",
          "type": "address"
        }
      ],
      "name": "renounceRole",
      "outputs": [],
      "stateMutability": "nonpayable",
      "type": "function"
    },
    {
      "inputs": [
        {
          "internalType": "bytes32",
          "name": "role",
          "type": "bytes32"
        },
        {
          "internalType": "address",
          "name": "account",
          "type": "address"
        }
      ],
      "name": "revokeRole",
      "outputs": [],
      "stateMutability": "nonpayable",
      "type": "function"
    },
    {
      "inputs": [
        {
          "internalType": "address",
          "name": "token",
          "type": "address"
        }
      ],
      "name": "setPayment",
      "outputs": [],
      "stateMutability": "nonpayable",
      "type": "function"
    },
    {
      "inputs": [
        {
          "internalType": "address",
          "name": "user",
          "type": "address"
        }
      ],
      "name": "subExpiresAt",
      "outputs": [
        {
          "internalType": "uint256",
          "name": "",
          "type": "uint256"
        }
      ],
      "stateMutability": "view",
      "type": "function"
    },
    {
      "inputs": [
        {
          "internalType": "uint256",
          "name": "subId",
          "type": "uint256"
        }
      ],
      "name": "subscribe",
      "outputs": [],
      "stateMutability": "nonpayable",
      "type": "function"
    },
    {
      "inputs": [
        {
          "internalType": "uint256",
          "name": "id",
          "type": "uint256"
        }
      ],
      "name": "subscriptionExists",
      "outputs": [
        {
          "internalType": "bool",
          "name": "",
          "type": "bool"
        }
      ],
      "stateMutability": "view",
      "type": "function"
    },
    {
      "inputs": [
        {
          "internalType": "bytes4",
          "name": "interfaceId",
          "type": "bytes4"
        }
      ],
      "name": "supportsInterface",
      "outputs": [
        {
          "internalType": "bool",
          "name": "",
          "type": "bool"
        }
      ],
      "stateMutability": "view",
      "type": "function"
    },
    {
      "inputs": [],
      "name": "unpause",
      "outputs": [],
      "stateMutability": "nonpayable",
      "type": "function"
    },
    {
      "inputs": [
        {
          "internalType": "address",
          "name": "user",
          "type": "address"
        }
      ],
      "name": "userHasSubscription",
      "outputs": [
        {
          "internalType": "bool",
          "name": "",
          "type": "bool"
        }
      ],
      "stateMutability": "view",
      "type": "function"
    },
    {
      "inputs": [
        {
          "internalType": "uint256",
          "name": "amount",
          "type": "uint256"
        }
      ],
      "name": "withdrawFunds",
      "outputs": [],
      "stateMutability": "nonpayable",
      "type": "function"
    }
  ],
  "bytecode": "0x608060405234801561000f575f5ffd5b5061003a7fa49807205ce4d355092ef5a8a18f56e8913cf4a201fbe287825b095693c2177533610048565b506100436100f1565b610160565b5f828152602081815260408083206001600160a01b038516845290915281205460ff166100e8575f838152602081815260408083206001600160a01b03861684529091529020805460ff191660011790556100a03390565b6001600160a01b0316826001600160a01b0316847f2f8788117e7eff1d82e926ec794901d17c78024a50270940304540a733656f0d60405160405180910390a45060016100eb565b505f5b92915050565b6100f961013a565b6001805460ff1916811790556040805133815290517f62e78cea01bee320cd4e420270b5ea74000d11b0c9f74754ebdbfc544b05a2589181900360200190a1565b60015460ff161561015e5760405163d93c066560e01b815260040160405180910390fd5b565b6110d78061016d5f395ff3fe608060405234801561000f575f5ffd5b5060043610610132575f3560e01c80635c975abb116100b4578063b54ae44f11610079578063b54ae44f146102eb578063d547741f146102fe578063dc311dd314610311578063e3a7930714610331578063ed9ecdd014610353578063fd15e84f1461037e575f5ffd5b80635c975abb1461029f57806375b238fc146102aa57806391d14854146102be5780639ab06fcb146102d1578063a217fddf146102e4575f5ffd5b80632f2ff15d116100fa5780632f2ff15d146101e357806332cd6fd2146101f657806336568abe146102605780633f4ba83a14610273578063513fa7eb1461027b575f5ffd5b806301ffc9a7146101365780630f574ba71461015e578063155dd5ee1461017357806318c9678f14610186578063248a9ca3146101b3575b5f5ffd5b610149610144366004610c50565b6103a9565b60405190151581526020015b60405180910390f35b61017161016c366004610c7e565b6103df565b005b610171610181366004610c7e565b6105e3565b610149610194366004610cb0565b6001600160a01b03165f90815260036020526040902060020154421090565b6101d56101c1366004610c7e565b5f9081526020819052604090206001015490565b604051908152602001610155565b6101716101f1366004610cc9565b6106b2565b610236610204366004610cb0565b600360208190525f918252604090912080546001820154600283015492909301546001600160a01b0390911692919084565b604080516001600160a01b0390951685526020850193909352918301526060820152608001610155565b61017161026e366004610cc9565b6106dc565b610171610714565b610149610289366004610c7e565b5f90815260026020526040902060010154151590565b60015460ff16610149565b6101d55f5160206110825f395f51905f5281565b6101496102cc366004610cc9565b610752565b6101716102df366004610cb0565b61077a565b6101d55f81565b6101716102f9366004610d07565b6107d0565b61017161030c366004610cc9565b6108a3565b61032461031f366004610c7e565b6108c7565b6040516101559190610dfb565b61034461033f366004610c7e565b6109d9565b60405161015593929190610e36565b600454610366906001600160a01b031681565b6040516001600160a01b039091168152602001610155565b6101d561038c366004610cb0565b6001600160a01b03165f9081526003602052604090206002015490565b5f6001600160e01b03198216637965db0b60e01b14806103d957506301ffc9a760e01b6001600160e01b03198316145b92915050565b6103e7610a80565b5f81815260026020526040902060010154339061041757604051635e6adecb60e01b815260040160405180910390fd5b6001600160a01b0381165f9081526003602052604090206002015442101561045257604051633e85b84160e21b815260040160405180910390fd5b6040518060800160405280826001600160a01b0316815260200142815260200160025f8581526020019081526020015f2060020154426104929190610e5a565b815260209081018490526001600160a01b038381165f81815260038085526040808320875181546001600160a01b03191690871617815587870151600180830191909155888301516002808401919091556060909901519190930155600480548a8552979096528083209091015490516323b872dd60e01b81529485019290925230602485015260448401919091529216906323b872dd906064016020604051808303815f875af1158015610549573d5f5f3e3d5ffd5b505050506040513d601f19601f8201168201806040525081019061056d9190610e79565b90508061058d576040516307a4ced160e51b815260040160405180910390fd5b5f838152600260205260409081902090516001600160a01b038416917f3226bdf299047fc4e47e1924911670cd961c2a52db4e3ba1ac619e86a9ae7060916105d6914291610ed0565b60405180910390a2505050565b6105fa5f5160206110825f395f51905f5233610752565b61061757604051637bfa4b9f60e01b815260040160405180910390fd5b6004805460405163a9059cbb60e01b81523392810192909252602482018390525f916001600160a01b039091169063a9059cbb906044016020604051808303815f875af115801561066a573d5f5f3e3d5ffd5b505050506040513d601f19601f8201168201806040525081019061068e9190610e79565b9050806106ae576040516307a4ced160e51b815260040160405180910390fd5b5050565b5f828152602081905260409020600101546106cc81610aa4565b6106d68383610ab1565b50505050565b6001600160a01b03811633146107055760405163334bd91960e11b815260040160405180910390fd5b61070f8282610b40565b505050565b61072b5f5160206110825f395f51905f5233610752565b61074857604051637bfa4b9f60e01b815260040160405180910390fd5b610750610ba9565b565b5f918252602082815260408084206001600160a01b0393909316845291905290205460ff1690565b6107915f5160206110825f395f51905f5233610752565b6107ae57604051637bfa4b9f60e01b815260040160405180910390fd5b600480546001600160a01b0319166001600160a01b0392909216919091179055565b6107d8610a80565b6107ef5f5160206110825f395f51905f5233610752565b61080c57604051637bfa4b9f60e01b815260040160405180910390fd5b5f831161082c576040516323a3620960e01b815260040160405180910390fd5b5f821161084c5760405163cf478f2360e01b815260040160405180910390fd5b6040805160608101825285815260208082018690528183018590525f848152600290915291909120815182919081906108859082610fc6565b50602082015160018201556040909101516002909101555050505050565b5f828152602081905260409020600101546108bd81610aa4565b6106d68383610b40565b6108e96040518060600160405280606081526020015f81526020015f81525090565b5f8281526002602052604090206001015461091757604051635e6adecb60e01b815260040160405180910390fd5b5f828152600260205260409081902081516060810190925280548290829061093e90610e98565b80601f016020809104026020016040519081016040528092919081815260200182805461096a90610e98565b80156109b55780601f1061098c576101008083540402835291602001916109b5565b820191905f5260205f20905b81548152906001019060200180831161099857829003601f168201915b50505050508152602001600182015481526020016002820154815250509050919050565b60026020525f90815260409020805481906109f390610e98565b80601f0160208091040260200160405190810160405280929190818152602001828054610a1f90610e98565b8015610a6a5780601f10610a4157610100808354040283529160200191610a6a565b820191905f5260205f20905b815481529060010190602001808311610a4d57829003601f168201915b5050505050908060010154908060020154905083565b60015460ff16156107505760405163d93c066560e01b815260040160405180910390fd5b610aae8133610bf0565b50565b5f610abc8383610752565b610b39575f838152602081815260408083206001600160a01b03861684529091529020805460ff19166001179055610af13390565b6001600160a01b0316826001600160a01b0316847f2f8788117e7eff1d82e926ec794901d17c78024a50270940304540a733656f0d60405160405180910390a45060016103d9565b505f6103d9565b5f610b4b8383610752565b15610b39575f838152602081815260408083206001600160a01b0386168085529252808320805460ff1916905551339286917ff6391f5c32d9c69d2a47ea670b442974b53935d1edc7fd64eb21e047a839171b9190a45060016103d9565b610bb1610c2d565b6001805460ff191690556040805133815290517f5db9ee0a495bf2e6ff9c91a7834c1ba4fdd244a5e8aa4e537bd38aeae4b073aa9181900360200190a1565b610bfa8282610752565b6106ae5760405163e2517d3f60e01b81526001600160a01b03821660048201526024810183905260440160405180910390fd5b60015460ff1661075057604051638dfc202b60e01b815260040160405180910390fd5b5f60208284031215610c60575f5ffd5b81356001600160e01b031981168114610c77575f5ffd5b9392505050565b5f60208284031215610c8e575f5ffd5b5035919050565b80356001600160a01b0381168114610cab575f5ffd5b919050565b5f60208284031215610cc0575f5ffd5b610c7782610c95565b5f5f60408385031215610cda575f5ffd5b82359150610cea60208401610c95565b90509250929050565b634e487b7160e01b5f52604160045260245ffd5b5f5f5f5f60808587031215610d1a575f5ffd5b843567ffffffffffffffff811115610d30575f5ffd5b8501601f81018713610d40575f5ffd5b803567ffffffffffffffff811115610d5a57610d5a610cf3565b604051601f8201601f19908116603f0116810167ffffffffffffffff81118282101715610d8957610d89610cf3565b604052818152828201602001891015610da0575f5ffd5b816020840160208301375f6020928201830152989087013597506040870135966060013595509350505050565b5f81518084528060208401602086015e5f602082860101526020601f19601f83011685010191505092915050565b602081525f825160606020840152610e166080840182610dcd565b905060208401516040840152604084015160608401528091505092915050565b606081525f610e486060830186610dcd565b60208301949094525060400152919050565b808201808211156103d957634e487b7160e01b5f52601160045260245ffd5b5f60208284031215610e89575f5ffd5b81518015158114610c77575f5ffd5b600181811c90821680610eac57607f821691505b602082108103610eca57634e487b7160e01b5f52602260045260245ffd5b50919050565b82815260406020820152606060408201525f5f8354610eee81610e98565b8060a0860152600182165f8114610f0c5760018114610f2857610f59565b60ff19831660c087015260c082151560051b8701019350610f59565b865f5260205f205f5b83811015610f5057815488820160c00152600190910190602001610f31565b870160c0019450505b5050506001840154606084015260028401546080840152809150509392505050565b601f82111561070f57805f5260205f20601f840160051c81016020851015610fa05750805b601f840160051c820191505b81811015610fbf575f8155600101610fac565b5050505050565b815167ffffffffffffffff811115610fe057610fe0610cf3565b610ff481610fee8454610e98565b84610f7b565b6020601f821160018114611026575f831561100f5750848201515b5f19600385901b1c1916600184901b178455610fbf565b5f84815260208120601f198516915b828110156110555787850151825560209485019460019092019101611035565b508482101561107257868401515f19600387901b60f8161c191681555b50505050600190811b0190555056fea49807205ce4d355092ef5a8a18f56e8913cf4a201fbe287825b095693c21775a2646970667358221220dd49615a0d272e7a17273802f3b9b0dd335be7a84a483aba507d9d799abb42a964736f6c634300081c0033",
  "linkReferences": {},
  "deployedLinkReferences": {},
  "immutableReferences": {},
  "inputSourceName": "project/contracts/Subscriptions.sol",
  "buildInfoId": "solc-0_8_28-f3ce53d1ab385a6cf606c0bc97b7622ac946e205"
}