{
  "_format": "hh3-artifact-1",
  "contractName": "Subscriptions",
  "sourceName": "contracts/Subscriptions.sol",
  "abi": [
    {
      "inputs": [],
      "stateMutability": "nonpayable",
      "type": "constructor"
    },
    {
      "inputs": [],
      "name": "AccessControlBadConfirmation",
      "type": "error"
    },
    {
      "inputs": [
        {
          "internalType": "address",
          "name": "account",
          "type": "address"
        },
        {
          "internalType": "bytes32",
          "name": "neededRole",
          "type": "bytes32"
        }
      ],
      "name": "AccessControlUnauthorizedAccount",
      "type": "error"
    },
    {
      "inputs": [],
      "name": "DurationMustBeGreaterThanZero",
      "type": "error"
    },
    {
      "inputs": [],
      "name": "EnforcedPause",
      "type": "error"
    },
    {
      "inputs": [],
      "name": "ExpectedPause",
      "type": "error"
    },
    {
      "inputs": [],
      "name": "InvalidSubscriptionId",
      "type": "error"
    },
    {
      "inputs": [],
      "name": "NotAdmin",
      "type": "error"
    },
    {
      "inputs": [],
      "name": "NotApproved",
      "type": "error"
    },
    {
      "inputs": [],
      "name": "PaymentFailed",
      "type": "error"
    },
    {
      "inputs": [],
      "name": "PaymentNotAvailable",
      "type": "error"
    },
    {
      "inputs": [],
      "name": "ReentrancyGuardReentrantCall",
      "type": "error"
    },
    {
      "inputs": [],
      "name": "SubscriptionDoesNotExist",
      "type": "error"
    },
    {
      "inputs": [],
      "name": "TokenCannotBeZeroAddress",
      "type": "error"
    },
    {
      "inputs": [],
      "name": "UserHasSubscription",
      "type": "error"
    },
    {
      "anonymous": false,
      "inputs": [
        {
          "indexed": false,
          "internalType": "address",
          "name": "account",
          "type": "address"
        }
      ],
      "name": "Paused",
      "type": "event"
    },
    {
      "anonymous": false,
      "inputs": [
        {
          "indexed": true,
          "internalType": "bytes32",
          "name": "role",
          "type": "bytes32"
        },
        {
          "indexed": true,
          "internalType": "bytes32",
          "name": "previousAdminRole",
          "type": "bytes32"
        },
        {
          "indexed": true,
          "internalType": "bytes32",
          "name": "newAdminRole",
          "type": "bytes32"
        }
      ],
      "name": "RoleAdminChanged",
      "type": "event"
    },
    {
      "anonymous": false,
      "inputs": [
        {
          "indexed": true,
          "internalType": "bytes32",
          "name": "role",
          "type": "bytes32"
        },
        {
          "indexed": true,
          "internalType": "address",
          "name": "account",
          "type": "address"
        },
        {
          "indexed": true,
          "internalType": "address",
          "name": "sender",
          "type": "address"
        }
      ],
      "name": "RoleGranted",
      "type": "event"
    },
    {
      "anonymous": false,
      "inputs": [
        {
          "indexed": true,
          "internalType": "bytes32",
          "name": "role",
          "type": "bytes32"
        },
        {
          "indexed": true,
          "internalType": "address",
          "name": "account",
          "type": "address"
        },
        {
          "indexed": true,
          "internalType": "address",
          "name": "sender",
          "type": "address"
        }
      ],
      "name": "RoleRevoked",
      "type": "event"
    },
    {
      "anonymous": false,
      "inputs": [
        {
          "indexed": true,
          "internalType": "address",
          "name": "user",
          "type": "address"
        },
        {
          "indexed": false,
          "internalType": "address",
          "name": "token",
          "type": "address"
        },
        {
          "indexed": false,
          "internalType": "uint256",
          "name": "price",
          "type": "uint256"
        },
        {
          "indexed": false,
          "internalType": "uint256",
          "name": "timestamp",
          "type": "uint256"
        },
        {
          "components": [
            {
              "internalType": "string",
              "name": "name",
              "type": "string"
            },
            {
              "internalType": "uint256",
              "name": "duration",
              "type": "uint256"
            }
          ],
          "indexed": false,
          "internalType": "struct Subscriptions.Subscription",
          "name": "subscription",
          "type": "tuple"
        }
      ],
      "name": "Subscribed",
      "type": "event"
    },
    {
      "anonymous": false,
      "inputs": [
        {
          "indexed": true,
          "internalType": "uint256",
          "name": "id",
          "type": "uint256"
        },
        {
          "components": [
            {
              "internalType": "string",
              "name": "name",
              "type": "string"
            },
            {
              "internalType": "uint256",
              "name": "duration",
              "type": "uint256"
            }
          ],
          "indexed": false,
          "internalType": "struct Subscriptions.Subscription",
          "name": "subscription",
          "type": "tuple"
        }
      ],
      "name": "SubscriptionCreated",
      "type": "event"
    },
    {
      "anonymous": false,
      "inputs": [
        {
          "indexed": true,
          "internalType": "address",
          "name": "user",
          "type": "address"
        },
        {
          "indexed": false,
          "internalType": "address",
          "name": "token",
          "type": "address"
        },
        {
          "indexed": false,
          "internalType": "uint256",
          "name": "price",
          "type": "uint256"
        },
        {
          "indexed": false,
          "internalType": "uint256",
          "name": "newExpiresAt",
          "type": "uint256"
        },
        {
          "components": [
            {
              "internalType": "string",
              "name": "name",
              "type": "string"
            },
            {
              "internalType": "uint256",
              "name": "duration",
              "type": "uint256"
            }
          ],
          "indexed": false,
          "internalType": "struct Subscriptions.Subscription",
          "name": "subscription",
          "type": "tuple"
        }
      ],
      "name": "SubscriptionRenewed",
      "type": "event"
    },
    {
      "anonymous": false,
      "inputs": [
        {
          "indexed": false,
          "internalType": "address",
          "name": "account",
          "type": "address"
        }
      ],
      "name": "Unpaused",
      "type": "event"
    },
    {
      "inputs": [],
      "name": "ADMIN_ROLE",
      "outputs": [
        {
          "internalType": "bytes32",
          "name": "",
          "type": "bytes32"
        }
      ],
      "stateMutability": "view",
      "type": "function"
    },
    {
      "inputs": [],
      "name": "DEFAULT_ADMIN_ROLE",
      "outputs": [
        {
          "internalType": "bytes32",
          "name": "",
          "type": "bytes32"
        }
      ],
      "stateMutability": "view",
      "type": "function"
    },
    {
      "inputs": [
        {
          "internalType": "uint256",
          "name": "",
          "type": "uint256"
        },
        {
          "internalType": "address",
          "name": "",
          "type": "address"
        }
      ],
      "name": "_subscriptionPrices",
      "outputs": [
        {
          "internalType": "uint256",
          "name": "",
          "type": "uint256"
        }
      ],
      "stateMutability": "view",
      "type": "function"
    },
    {
      "inputs": [
        {
          "internalType": "uint256",
          "name": "",
          "type": "uint256"
        }
      ],
      "name": "_subscriptions",
      "outputs": [
        {
          "internalType": "string",
          "name": "name",
          "type": "string"
        },
        {
          "internalType": "uint256",
          "name": "duration",
          "type": "uint256"
        }
      ],
      "stateMutability": "view",
      "type": "function"
    },
    {
      "inputs": [
        {
          "internalType": "address",
          "name": "",
          "type": "address"
        }
      ],
      "name": "_userSubscriptions",
      "outputs": [
        {
          "internalType": "address",
          "name": "user",
          "type": "address"
        },
        {
          "internalType": "uint256",
          "name": "timestamp",
          "type": "uint256"
        },
        {
          "internalType": "uint256",
          "name": "expiresAt",
          "type": "uint256"
        },
        {
          "internalType": "uint256",
          "name": "subscription",
          "type": "uint256"
        }
      ],
      "stateMutability": "view",
      "type": "function"
    },
    {
      "inputs": [
        {
          "internalType": "string",
          "name": "name",
          "type": "string"
        },
        {
          "internalType": "uint256",
          "name": "duration",
          "type": "uint256"
        },
        {
          "internalType": "uint256",
          "name": "id",
          "type": "uint256"
        }
      ],
      "name": "createSubscription",
      "outputs": [],
      "stateMutability": "nonpayable",
      "type": "function"
    },
    {
      "inputs": [
        {
          "internalType": "uint256",
          "name": "subId",
          "type": "uint256"
        },
        {
          "internalType": "address",
          "name": "token",
          "type": "address"
        },
        {
          "internalType": "uint256",
          "name": "price",
          "type": "uint256"
        }
      ],
      "name": "editPayment",
      "outputs": [],
      "stateMutability": "nonpayable",
      "type": "function"
    },
    {
      "inputs": [
        {
          "internalType": "bytes32",
          "name": "role",
          "type": "bytes32"
        }
      ],
      "name": "getRoleAdmin",
      "outputs": [
        {
          "internalType": "bytes32",
          "name": "",
          "type": "bytes32"
        }
      ],
      "stateMutability": "view",
      "type": "function"
    },
    {
      "inputs": [
        {
          "internalType": "uint256",
          "name": "id",
          "type": "uint256"
        }
      ],
      "name": "getSubscription",
      "outputs": [
        {
          "components": [
            {
              "internalType": "string",
              "name": "name",
              "type": "string"
            },
            {
              "internalType": "uint256",
              "name": "duration",
              "type": "uint256"
            }
          ],
          "internalType": "struct Subscriptions.Subscription",
          "name": "",
          "type": "tuple"
        }
      ],
      "stateMutability": "view",
      "type": "function"
    },
    {
      "inputs": [],
      "name": "getSubscriptionIds",
      "outputs": [
        {
          "internalType": "uint256[]",
          "name": "",
          "type": "uint256[]"
        }
      ],
      "stateMutability": "view",
      "type": "function"
    },
    {
      "inputs": [
        {
          "internalType": "uint256",
          "name": "subId",
          "type": "uint256"
        },
        {
          "internalType": "address",
          "name": "token",
          "type": "address"
        }
      ],
      "name": "getSubscriptionPrice",
      "outputs": [
        {
          "internalType": "uint256",
          "name": "",
          "type": "uint256"
        }
      ],
      "stateMutability": "view",
      "type": "function"
    },
    {
      "inputs": [
        {
          "internalType": "bytes32",
          "name": "role",
          "type": "bytes32"
        },
        {
          "internalType": "address",
          "name": "account",
          "type": "address"
        }
      ],
      "name": "grantRole",
      "outputs": [],
      "stateMutability": "nonpayable",
      "type": "function"
    },
    {
      "inputs": [
        {
          "internalType": "bytes32",
          "name": "role",
          "type": "bytes32"
        },
        {
          "internalType": "address",
          "name": "account",
          "type": "address"
        }
      ],
      "name": "hasRole",
      "outputs": [
        {
          "internalType": "bool",
          "name": "",
          "type": "bool"
        }
      ],
      "stateMutability": "view",
      "type": "function"
    },
    {
      "inputs": [
        {
          "internalType": "uint256",
          "name": "subId",
          "type": "uint256"
        },
        {
          "internalType": "address",
          "name": "token",
          "type": "address"
        }
      ],
      "name": "isAvailablePayment",
      "outputs": [
        {
          "internalType": "bool",
          "name": "",
          "type": "bool"
        }
      ],
      "stateMutability": "view",
      "type": "function"
    },
    {
      "inputs": [],
      "name": "paused",
      "outputs": [
        {
          "internalType": "bool",
          "name": "",
          "type": "bool"
        }
      ],
      "stateMutability": "view",
      "type": "function"
    },
    {
      "inputs": [
        {
          "internalType": "uint256",
          "name": "subId",
          "type": "uint256"
        },
        {
          "internalType": "address",
          "name": "token",
          "type": "address"
        }
      ],
      "name": "renewSubscription",
      "outputs": [],
      "stateMutability": "nonpayable",
      "type": "function"
    },
    {
      "inputs": [
        {
          "internalType": "bytes32",
          "name": "role",
          "type": "bytes32"
        },
        {
          "internalType": "address",
          "name": "callerConfirmation",
          "type": "address"
        }
      ],
      "name": "renounceRole",
      "outputs": [],
      "stateMutability": "nonpayable",
      "type": "function"
    },
    {
      "inputs": [
        {
          "internalType": "bytes32",
          "name": "role",
          "type": "bytes32"
        },
        {
          "internalType": "address",
          "name": "account",
          "type": "address"
        }
      ],
      "name": "revokeRole",
      "outputs": [],
      "stateMutability": "nonpayable",
      "type": "function"
    },
    {
      "inputs": [
        {
          "internalType": "address",
          "name": "user",
          "type": "address"
        }
      ],
      "name": "subExpiresAt",
      "outputs": [
        {
          "internalType": "uint256",
          "name": "",
          "type": "uint256"
        }
      ],
      "stateMutability": "view",
      "type": "function"
    },
    {
      "inputs": [
        {
          "internalType": "uint256",
          "name": "subId",
          "type": "uint256"
        },
        {
          "internalType": "address",
          "name": "token",
          "type": "address"
        }
      ],
      "name": "subscribe",
      "outputs": [],
      "stateMutability": "nonpayable",
      "type": "function"
    },
    {
      "inputs": [
        {
          "internalType": "uint256",
          "name": "id",
          "type": "uint256"
        }
      ],
      "name": "subscriptionExists",
      "outputs": [
        {
          "internalType": "bool",
          "name": "",
          "type": "bool"
        }
      ],
      "stateMutability": "view",
      "type": "function"
    },
    {
      "inputs": [
        {
          "internalType": "bytes4",
          "name": "interfaceId",
          "type": "bytes4"
        }
      ],
      "name": "supportsInterface",
      "outputs": [
        {
          "internalType": "bool",
          "name": "",
          "type": "bool"
        }
      ],
      "stateMutability": "view",
      "type": "function"
    },
    {
      "inputs": [],
      "name": "unpause",
      "outputs": [],
      "stateMutability": "nonpayable",
      "type": "function"
    },
    {
      "inputs": [
        {
          "internalType": "address",
          "name": "user",
          "type": "address"
        }
      ],
      "name": "userHasSubscription",
      "outputs": [
        {
          "internalType": "bool",
          "name": "",
          "type": "bool"
        }
      ],
      "stateMutability": "view",
      "type": "function"
    },
    {
      "inputs": [
        {
          "internalType": "address",
          "name": "token",
          "type": "address"
        }
      ],
      "name": "withdrawFunds",
      "outputs": [],
      "stateMutability": "nonpayable",
      "type": "function"
    }
  ],
  "bytecode": "0x608060405234801561000f575f5ffd5b50600160025561003f7fa49807205ce4d355092ef5a8a18f56e8913cf4a201fbe287825b095693c217753361004d565b506100486100f6565b610165565b5f828152602081815260408083206001600160a01b038516845290915281205460ff166100ed575f838152602081815260408083206001600160a01b03861684529091529020805460ff191660011790556100a53390565b6001600160a01b0316826001600160a01b0316847f2f8788117e7eff1d82e926ec794901d17c78024a50270940304540a733656f0d60405160405180910390a45060016100f0565b505f5b92915050565b6100fe61013f565b6001805460ff1916811790556040805133815290517f62e78cea01bee320cd4e420270b5ea74000d11b0c9f74754ebdbfc544b05a2589181900360200190a1565b60015460ff16156101635760405163d93c066560e01b815260040160405180910390fd5b565b611861806101725f395ff3fe608060405234801561000f575f5ffd5b506004361061016d575f3560e01c8063557298ad116100d95780639735dd9611610093578063d547741f1161006e578063d547741f146103d4578063dc311dd3146103e7578063e3a7930714610407578063fd15e84f14610428575f5ffd5b80639735dd96146103a7578063a217fddf146103ba578063ae7b6977146103c1575f5ffd5b8063557298ad1461032557806359e6951d1461034f5780635c975abb1461036257806368742da61461036d57806375b238fc1461038057806391d1485414610394575f5ffd5b806332cd6fd21161012a57806332cd6fd21461025657806335091ab1146102be57806336568abe146102d35780633c36353b146102e65780633f4ba83a146102f9578063513fa7eb14610301575f5ffd5b806301ffc9a71461017157806318c9678f14610199578063196677ee146101c7578063248a9ca3146101e85780632b4f54fd1461020a5780632f2ff15d14610241575b5f5ffd5b61018461017f3660046113cd565b610453565b60405190151581526020015b60405180910390f35b6101846101a7366004611416565b6001600160a01b03165f9081526004602052604090206002015442111590565b6101da6101d536600461142f565b610489565b604051908152602001610190565b6101da6101f6366004611459565b5f9081526020819052604090206001015490565b61018461021836600461142f565b5f9182526005602090815260408084206001600160a01b03939093168452919052902054151590565b61025461024f36600461142f565b6104df565b005b610294610264366004611416565b60046020525f908152604090208054600182015460028301546003909301546001600160a01b0390921692909184565b604080516001600160a01b0390951685526020850193909352918301526060820152608001610190565b6102c6610509565b6040516101909190611470565b6102546102e136600461142f565b61055f565b6102546102f43660046114b2565b610597565b610254610645565b61018461030f366004611459565b5f90815260036020526040902060010154151590565b6101da61033336600461142f565b600560209081525f928352604080842090915290825290205481565b61025461035d36600461142f565b610683565b60015460ff16610184565b61025461037b366004611416565b610a13565b6101da5f51602061180c5f395f51905f5281565b6101846103a236600461142f565b610b4b565b6102546103b536600461142f565b610b73565b6101da5f81565b6102546103cf3660046114f9565b610f19565b6102546103e236600461142f565b61101a565b6103fa6103f5366004611459565b61103e565b604051610190919061160f565b61041a610415366004611459565b611137565b604051610190929190611621565b6101da610436366004611416565b6001600160a01b03165f9081526004602052604090206002015490565b5f6001600160e01b03198216637965db0b60e01b148061048357506301ffc9a760e01b6001600160e01b03198316145b92915050565b5f828152600360205260408120600101546104b757604051635e6adecb60e01b815260040160405180910390fd5b505f9182526005602090815260408084206001600160a01b0393909316845291905290205490565b5f828152602081905260409020600101546104f9816111d8565b61050383836111e2565b50505050565b6060600680548060200260200160405190810160405280929190818152602001828054801561055557602002820191905f5260205f20905b815481526020019060010190808311610541575b5050505050905090565b6001600160a01b03811633146105885760405163334bd91960e11b815260040160405180910390fd5b6105928282611271565b505050565b6105ae5f51602061180c5f395f51905f5233610b4b565b6105cb57604051637bfa4b9f60e01b815260040160405180910390fd5b5f838152600360205260409020600101546105f957604051635e6adecb60e01b815260040160405180910390fd5b6001600160a01b03821661062057604051635f5d339960e01b815260040160405180910390fd5b5f9283526005602090815260408085206001600160a01b039094168552929052912055565b61065c5f51602061180c5f395f51905f5233610b4b565b61067957604051637bfa4b9f60e01b815260040160405180910390fd5b6106816112da565b565b61068b611321565b610693611345565b336001600160a01b0382166106bb57604051635f5d339960e01b815260040160405180910390fd5b5f838152600360205260409020600101546106e957604051635e6adecb60e01b815260040160405180910390fd5b6001600160a01b0381165f90815260046020526040902060020154421161072357604051633e85b84160e21b815260040160405180910390fd5b5f8381526005602090815260408083206001600160a01b03861684529091528120549081900361076657604051630545e5f960e01b815260040160405180910390fd5b5f84815260036020526040808220815180830190925280548290829061078b90611642565b80601f01602080910402602001604051908101604052809291908181526020018280546107b790611642565b80156108025780601f106107d957610100808354040283529160200191610802565b820191905f5260205f20905b8154815290600101906020018083116107e557829003601f168201915b5050505050815260200160018201548152505090506040518060800160405280846001600160a01b03168152602001428152602001826020015142610847919061167a565b815260209081018790526001600160a01b038581165f8181526004808552604091829020865181546001600160a01b0319169086161781559486015160018601558582015160028601556060909501516003909401939093559151636eb1769f60e11b8152928301919091523060248301528591849183169063dd62ed3e90604401602060405180830381865afa1580156108e4573d5f5f3e3d5ffd5b505050506040513d601f19601f820116820180604052508101906109089190611699565b10156109275760405163c19f17a960e01b815260040160405180910390fd5b6040516323b872dd60e01b81526001600160a01b038581166004830152306024830152604482018590528216906323b872dd906064016020604051808303815f875af1158015610979573d5f5f3e3d5ffd5b505050506040513d601f19601f8201168201806040525081019061099d91906116b0565b6109ba576040516307a4ced160e51b815260040160405180910390fd5b836001600160a01b03167f8b93f7b18e06337bd3fbfe0ae0fa63bc3a39a97ea98b553cc6a741abf0bfd3fc868542866040516109f994939291906116cf565b60405180910390a250505050610a0f6001600255565b5050565b610a1b611321565b610a325f51602061180c5f395f51905f5233610b4b565b610a4f57604051637bfa4b9f60e01b815260040160405180910390fd5b6040516370a0823160e01b81523060048201526001600160a01b0382169063a9059cbb90339083906370a0823190602401602060405180830381865afa158015610a9b573d5f5f3e3d5ffd5b505050506040513d601f19601f82011682018060405250810190610abf9190611699565b6040516001600160e01b031960e085901b1681526001600160a01b03909216600483015260248201526044016020604051808303815f875af1158015610b07573d5f5f3e3d5ffd5b505050506040513d601f19601f82011682018060405250810190610b2b91906116b0565b610b48576040516307a4ced160e51b815260040160405180910390fd5b50565b5f918252602082815260408084206001600160a01b0393909316845291905290205460ff1690565b610b7b611321565b610b83611345565b336001600160a01b038216610bab57604051635f5d339960e01b815260040160405180910390fd5b5f83815260036020526040902060010154610bd957604051635e6adecb60e01b815260040160405180910390fd5b6001600160a01b038082165f8181526004602052604090205490911614610c1357604051635e6adecb60e01b815260040160405180910390fd5b6001600160a01b0381165f908152600460205260409020600301548314610c4d57604051630ebd8d1960e11b815260040160405180910390fd5b5f8381526005602090815260408083206001600160a01b038616845290915281205490819003610c9057604051630545e5f960e01b815260040160405180910390fd5b5f848152600360205260408082208151808301909252805482908290610cb590611642565b80601f0160208091040260200160405190810160405280929190818152602001828054610ce190611642565b8015610d2c5780601f10610d0357610100808354040283529160200191610d2c565b820191905f5260205f20905b815481529060010190602001808311610d0f57829003601f168201915b5050509183525050600191909101546020918201526001600160a01b0385165f908152600490915260409020600281015491925090421115610d7c576020820151610d77904261167a565b610d90565b81602001518160020154610d90919061167a565b6002820155426001820155604051636eb1769f60e11b81526001600160a01b0385811660048301523060248301528691859183169063dd62ed3e90604401602060405180830381865afa158015610de9573d5f5f3e3d5ffd5b505050506040513d601f19601f82011682018060405250810190610e0d9190611699565b1015610e2c5760405163c19f17a960e01b815260040160405180910390fd5b6040516323b872dd60e01b81526001600160a01b038681166004830152306024830152604482018690528216906323b872dd906064016020604051808303815f875af1158015610e7e573d5f5f3e3d5ffd5b505050506040513d601f19601f82011682018060405250810190610ea291906116b0565b610ebf576040516307a4ced160e51b815260040160405180910390fd5b846001600160a01b03167fe6c2e4a1bc0ff43ee21393d65f5ca4ae8da486c50a46a7f55699a2373879f8688786856002015487604051610f0294939291906116cf565b60405180910390a25050505050610a0f6001600255565b610f21611321565b610f385f51602061180c5f395f51905f5233610b4b565b610f5557604051637bfa4b9f60e01b815260040160405180910390fd5b815f03610f755760405163cf478f2360e01b815260040160405180910390fd5b5f8181526003602052604090206001015415610fa457604051635e6adecb60e01b815260040160405180910390fd5b60408051808201825284815260208082018590525f84815260039091529190912081518291908190610fd69082611750565b50602091909101516001918201556006805491820181555f527ff652222313e28459528d920b65115c16c04f3efc82aaedc97be59f3f377c0d3f0191909155505050565b5f82815260208190526040902060010154611034816111d8565b6105038383611271565b60408051808201909152606081525f60208201525f8281526003602052604090206001015461108057604051635e6adecb60e01b815260040160405180910390fd5b5f828152600360205260409081902081518083019092528054829082906110a690611642565b80601f01602080910402602001604051908101604052809291908181526020018280546110d290611642565b801561111d5780601f106110f45761010080835404028352916020019161111d565b820191905f5260205f20905b81548152906001019060200180831161110057829003601f168201915b505050505081526020016001820154815250509050919050565b60036020525f908152604090208054819061115190611642565b80601f016020809104026020016040519081016040528092919081815260200182805461117d90611642565b80156111c85780601f1061119f576101008083540402835291602001916111c8565b820191905f5260205f20905b8154815290600101906020018083116111ab57829003601f168201915b5050505050908060010154905082565b610b48813361136d565b5f6111ed8383610b4b565b61126a575f838152602081815260408083206001600160a01b03861684529091529020805460ff191660011790556112223390565b6001600160a01b0316826001600160a01b0316847f2f8788117e7eff1d82e926ec794901d17c78024a50270940304540a733656f0d60405160405180910390a4506001610483565b505f610483565b5f61127c8383610b4b565b1561126a575f838152602081815260408083206001600160a01b0386168085529252808320805460ff1916905551339286917ff6391f5c32d9c69d2a47ea670b442974b53935d1edc7fd64eb21e047a839171b9190a4506001610483565b6112e26113aa565b6001805460ff191690556040805133815290517f5db9ee0a495bf2e6ff9c91a7834c1ba4fdd244a5e8aa4e537bd38aeae4b073aa9181900360200190a1565b60015460ff16156106815760405163d93c066560e01b815260040160405180910390fd5b600280540361136757604051633ee5aeb560e01b815260040160405180910390fd5b60028055565b6113778282610b4b565b610a0f5760405163e2517d3f60e01b81526001600160a01b03821660048201526024810183905260440160405180910390fd5b60015460ff1661068157604051638dfc202b60e01b815260040160405180910390fd5b5f602082840312156113dd575f5ffd5b81356001600160e01b0319811681146113f4575f5ffd5b9392505050565b80356001600160a01b0381168114611411575f5ffd5b919050565b5f60208284031215611426575f5ffd5b6113f4826113fb565b5f5f60408385031215611440575f5ffd5b82359150611450602084016113fb565b90509250929050565b5f60208284031215611469575f5ffd5b5035919050565b602080825282518282018190525f918401906040840190835b818110156114a7578351835260209384019390920191600101611489565b509095945050505050565b5f5f5f606084860312156114c4575f5ffd5b833592506114d4602085016113fb565b929592945050506040919091013590565b634e487b7160e01b5f52604160045260245ffd5b5f5f5f6060848603121561150b575f5ffd5b833567ffffffffffffffff811115611521575f5ffd5b8401601f81018613611531575f5ffd5b803567ffffffffffffffff81111561154b5761154b6114e5565b604051601f8201601f19908116603f0116810167ffffffffffffffff8111828210171561157a5761157a6114e5565b604052818152828201602001881015611591575f5ffd5b816020840160208301375f602092820183015297908601359650604090950135949350505050565b5f81518084528060208401602086015e5f602082860101526020601f19601f83011685010191505092915050565b5f8151604084526115fb60408501826115b9565b602093840151949093019390935250919050565b602081525f6113f460208301846115e7565b604081525f61163360408301856115b9565b90508260208301529392505050565b600181811c9082168061165657607f821691505b60208210810361167457634e487b7160e01b5f52602260045260245ffd5b50919050565b8082018082111561048357634e487b7160e01b5f52601160045260245ffd5b5f602082840312156116a9575f5ffd5b5051919050565b5f602082840312156116c0575f5ffd5b815180151581146113f4575f5ffd5b60018060a01b0385168152836020820152826040820152608060608201525f6116fb60808301846115e7565b9695505050505050565b601f82111561059257805f5260205f20601f840160051c8101602085101561172a5750805b601f840160051c820191505b81811015611749575f8155600101611736565b5050505050565b815167ffffffffffffffff81111561176a5761176a6114e5565b61177e816117788454611642565b84611705565b6020601f8211600181146117b0575f83156117995750848201515b5f19600385901b1c1916600184901b178455611749565b5f84815260208120601f198516915b828110156117df57878501518255602094850194600190920191016117bf565b50848210156117fc57868401515f19600387901b60f8161c191681555b50505050600190811b0190555056fea49807205ce4d355092ef5a8a18f56e8913cf4a201fbe287825b095693c21775a26469706673582212202b3602fb74386d135583f0deda5dd17a0c548236928791f265d18f7432153f3b64736f6c634300081c0033",
  "linkReferences": {},
  "deployedLinkReferences": {},
  "immutableReferences": {},
  "inputSourceName": "project/contracts/Subscriptions.sol",
  "buildInfoId": "solc-0_8_28-ec8c8960dd9b87a44adc08fbd20d2515fbae8aa7"
}