{
  "_format": "hh3-artifact-1",
  "contractName": "Token",
  "sourceName": "contracts/token/Token.sol",
  "abi": [
    {
      "inputs": [
        {
          "internalType": "string",
          "name": "name",
          "type": "string"
        },
        {
          "internalType": "string",
          "name": "symbol",
          "type": "string"
        }
      ],
      "stateMutability": "nonpayable",
      "type": "constructor"
    },
    {
      "inputs": [
        {
          "internalType": "address",
          "name": "spender",
          "type": "address"
        },
        {
          "internalType": "uint256",
          "name": "allowance",
          "type": "uint256"
        },
        {
          "internalType": "uint256",
          "name": "needed",
          "type": "uint256"
        }
      ],
      "name": "ERC20InsufficientAllowance",
      "type": "error"
    },
    {
      "inputs": [
        {
          "internalType": "address",
          "name": "sender",
          "type": "address"
        },
        {
          "internalType": "uint256",
          "name": "balance",
          "type": "uint256"
        },
        {
          "internalType": "uint256",
          "name": "needed",
          "type": "uint256"
        }
      ],
      "name": "ERC20InsufficientBalance",
      "type": "error"
    },
    {
      "inputs": [
        {
          "internalType": "address",
          "name": "approver",
          "type": "address"
        }
      ],
      "name": "ERC20InvalidApprover",
      "type": "error"
    },
    {
      "inputs": [
        {
          "internalType": "address",
          "name": "receiver",
          "type": "address"
        }
      ],
      "name": "ERC20InvalidReceiver",
      "type": "error"
    },
    {
      "inputs": [
        {
          "internalType": "address",
          "name": "sender",
          "type": "address"
        }
      ],
      "name": "ERC20InvalidSender",
      "type": "error"
    },
    {
      "inputs": [
        {
          "internalType": "address",
          "name": "spender",
          "type": "address"
        }
      ],
      "name": "ERC20InvalidSpender",
      "type": "error"
    },
    {
      "anonymous": false,
      "inputs": [
        {
          "indexed": true,
          "internalType": "address",
          "name": "owner",
          "type": "address"
        },
        {
          "indexed": true,
          "internalType": "address",
          "name": "spender",
          "type": "address"
        },
        {
          "indexed": false,
          "internalType": "uint256",
          "name": "value",
          "type": "uint256"
        }
      ],
      "name": "Approval",
      "type": "event"
    },
    {
      "anonymous": false,
      "inputs": [
        {
          "indexed": true,
          "internalType": "address",
          "name": "from",
          "type": "address"
        },
        {
          "indexed": true,
          "internalType": "address",
          "name": "to",
          "type": "address"
        },
        {
          "indexed": false,
          "internalType": "uint256",
          "name": "value",
          "type": "uint256"
        }
      ],
      "name": "Transfer",
      "type": "event"
    },
    {
      "inputs": [
        {
          "internalType": "address",
          "name": "owner",
          "type": "address"
        },
        {
          "internalType": "address",
          "name": "spender",
          "type": "address"
        }
      ],
      "name": "allowance",
      "outputs": [
        {
          "internalType": "uint256",
          "name": "",
          "type": "uint256"
        }
      ],
      "stateMutability": "view",
      "type": "function"
    },
    {
      "inputs": [
        {
          "internalType": "address",
          "name": "spender",
          "type": "address"
        },
        {
          "internalType": "uint256",
          "name": "amount",
          "type": "uint256"
        }
      ],
      "name": "approve",
      "outputs": [
        {
          "internalType": "bool",
          "name": "",
          "type": "bool"
        }
      ],
      "stateMutability": "nonpayable",
      "type": "function"
    },
    {
      "inputs": [
        {
          "internalType": "address",
          "name": "account",
          "type": "address"
        }
      ],
      "name": "balanceOf",
      "outputs": [
        {
          "internalType": "uint256",
          "name": "",
          "type": "uint256"
        }
      ],
      "stateMutability": "view",
      "type": "function"
    },
    {
      "inputs": [
        {
          "internalType": "uint256",
          "name": "amount",
          "type": "uint256"
        }
      ],
      "name": "burn",
      "outputs": [],
      "stateMutability": "nonpayable",
      "type": "function"
    },
    {
      "inputs": [
        {
          "internalType": "address",
          "name": "account",
          "type": "address"
        },
        {
          "internalType": "uint256",
          "name": "amount",
          "type": "uint256"
        }
      ],
      "name": "burnFrom",
      "outputs": [],
      "stateMutability": "nonpayable",
      "type": "function"
    },
    {
      "inputs": [],
      "name": "decimals",
      "outputs": [
        {
          "internalType": "uint8",
          "name": "",
          "type": "uint8"
        }
      ],
      "stateMutability": "view",
      "type": "function"
    },
    {
      "inputs": [],
      "name": "name",
      "outputs": [
        {
          "internalType": "string",
          "name": "",
          "type": "string"
        }
      ],
      "stateMutability": "view",
      "type": "function"
    },
    {
      "inputs": [],
      "name": "symbol",
      "outputs": [
        {
          "internalType": "string",
          "name": "",
          "type": "string"
        }
      ],
      "stateMutability": "view",
      "type": "function"
    },
    {
      "inputs": [],
      "name": "totalSupply",
      "outputs": [
        {
          "internalType": "uint256",
          "name": "",
          "type": "uint256"
        }
      ],
      "stateMutability": "view",
      "type": "function"
    },
    {
      "inputs": [
        {
          "internalType": "address",
          "name": "to",
          "type": "address"
        },
        {
          "internalType": "uint256",
          "name": "value",
          "type": "uint256"
        }
      ],
      "name": "transfer",
      "outputs": [
        {
          "internalType": "bool",
          "name": "",
          "type": "bool"
        }
      ],
      "stateMutability": "nonpayable",
      "type": "function"
    },
    {
      "inputs": [
        {
          "internalType": "address",
          "name": "from",
          "type": "address"
        },
        {
          "internalType": "address",
          "name": "to",
          "type": "address"
        },
        {
          "internalType": "uint256",
          "name": "value",
          "type": "uint256"
        }
      ],
      "name": "transferFrom",
      "outputs": [
        {
          "internalType": "bool",
          "name": "",
          "type": "bool"
        }
      ],
      "stateMutability": "nonpayable",
      "type": "function"
    }
  ],
  "bytecode": "0x608060405234801561000f575f5ffd5b50604051610dbd380380610dbd83398101604081905261002e9161026e565b8181600361003c8382610357565b5060046100498282610357565b505050610067336a084595161401484a00000061006e60201b60201c565b5050610436565b6001600160a01b03821661009c5760405163ec442f0560e01b81525f60048201526024015b60405180910390fd5b6100a75f83836100ab565b5050565b6001600160a01b0383166100d5578060025f8282546100ca9190610411565b909155506101459050565b6001600160a01b0383165f90815260208190526040902054818110156101275760405163391434e360e21b81526001600160a01b03851660048201526024810182905260448101839052606401610093565b6001600160a01b0384165f9081526020819052604090209082900390555b6001600160a01b0382166101615760028054829003905561017f565b6001600160a01b0382165f9081526020819052604090208054820190555b816001600160a01b0316836001600160a01b03167fddf252ad1be2c89b69c2b068fc378daa952ba7f163c4a11628f55a4df523b3ef836040516101c491815260200190565b60405180910390a3505050565b634e487b7160e01b5f52604160045260245ffd5b5f82601f8301126101f4575f5ffd5b81516001600160401b0381111561020d5761020d6101d1565b604051601f8201601f19908116603f011681016001600160401b038111828210171561023b5761023b6101d1565b604052818152838201602001851015610252575f5ffd5b8160208501602083015e5f918101602001919091529392505050565b5f5f6040838503121561027f575f5ffd5b82516001600160401b03811115610294575f5ffd5b6102a0858286016101e5565b602085015190935090506001600160401b038111156102bd575f5ffd5b6102c9858286016101e5565b9150509250929050565b600181811c908216806102e757607f821691505b60208210810361030557634e487b7160e01b5f52602260045260245ffd5b50919050565b601f82111561035257805f5260205f20601f840160051c810160208510156103305750805b601f840160051c820191505b8181101561034f575f815560010161033c565b50505b505050565b81516001600160401b03811115610370576103706101d1565b6103848161037e84546102d3565b8461030b565b6020601f8211600181146103b6575f831561039f5750848201515b5f19600385901b1c1916600184901b17845561034f565b5f84815260208120601f198516915b828110156103e557878501518255602094850194600190920191016103c5565b508482101561040257868401515f19600387901b60f8161c191681555b50505050600190811b01905550565b8082018082111561043057634e487b7160e01b5f52601160045260245ffd5b92915050565b61097a806104435f395ff3fe608060405234801561000f575f5ffd5b50600436106100a6575f3560e01c806342966c681161006e57806342966c681461011f57806370a082311461013457806379cc67901461015c57806395d89b411461016f578063a9059cbb14610177578063dd62ed3e1461018a575f5ffd5b806306fdde03146100aa578063095ea7b3146100c857806318160ddd146100eb57806323b872dd146100fd578063313ce56714610110575b5f5ffd5b6100b26101c2565b6040516100bf91906107b3565b60405180910390f35b6100db6100d63660046107e0565b610252565b60405190151581526020016100bf565b6002545b6040519081526020016100bf565b6100db61010b366004610808565b6102e9565b604051601281526020016100bf565b61013261012d366004610842565b61030c565b005b6100ef610142366004610859565b6001600160a01b03165f9081526020819052604090205490565b61013261016a3660046107e0565b610318565b6100b2610326565b6100db6101853660046107e0565b610335565b6100ef610198366004610872565b6001600160a01b039182165f90815260016020908152604080832093909416825291909152205490565b6060600380546101d1906108a3565b80601f01602080910402602001604051908101604052809291908181526020018280546101fd906108a3565b80156102485780601f1061021f57610100808354040283529160200191610248565b820191905f5260205f20905b81548152906001019060200180831161022b57829003601f168201915b5050505050905090565b5f6102826040518060400160405280600e81526020016d105c1c1c9bdd994818d85b1b195960921b81525061034c565b6102ad60405180604001604052806009815260200168029b832b73232b91d160bd1b8152508461038f565b6102d66040518060400160405280600781526020016602b30b63ab29d160cd1b815250836103d4565b6102e08383610419565b90505b92915050565b5f336102f6858285610426565b6103018585856104a7565b506001949350505050565b61031581610509565b50565b6103228282610513565b5050565b6060600480546101d1906108a3565b5f336103428185856104a7565b5060019392505050565b6103158160405160240161036091906107b3565b60408051601f198184030181529190526020810180516001600160e01b031663104c13eb60e21b179052610528565b61032282826040516024016103a59291906108db565b60408051601f198184030181529190526020810180516001600160e01b031663319af33360e01b179052610528565b61032282826040516024016103ea929190610904565b60408051601f198184030181529190526020810180516001600160e01b0316632d839cb360e21b179052610528565b5f33610342818585610531565b6001600160a01b038381165f908152600160209081526040808320938616835292905220545f198110156104a1578181101561049357604051637dc7a0d960e11b81526001600160a01b038416600482015260248101829052604481018390526064015b60405180910390fd5b6104a184848484035f61053a565b50505050565b6001600160a01b0383166104d057604051634b637e8f60e11b81525f600482015260240161048a565b6001600160a01b0382166104f95760405163ec442f0560e01b81525f600482015260240161048a565b61050483838361060c565b505050565b6103153382610732565b61051e823383610426565b6103228282610732565b61031581610766565b61050483838360015b6001600160a01b0384166105635760405163e602df0560e01b81525f600482015260240161048a565b6001600160a01b03831661058c57604051634a1406b160e11b81525f600482015260240161048a565b6001600160a01b038085165f90815260016020908152604080832093871683529290522082905580156104a157826001600160a01b0316846001600160a01b03167f8c5be1e5ebec7d5bd14f71427d1e84f3dd0314c0f7b2291e5b200ac8c7c3b925846040516105fe91815260200190565b60405180910390a350505050565b6001600160a01b038316610636578060025f82825461062b9190610925565b909155506106a69050565b6001600160a01b0383165f90815260208190526040902054818110156106885760405163391434e360e21b81526001600160a01b0385166004820152602481018290526044810183905260640161048a565b6001600160a01b0384165f9081526020819052604090209082900390555b6001600160a01b0382166106c2576002805482900390556106e0565b6001600160a01b0382165f9081526020819052604090208054820190555b816001600160a01b0316836001600160a01b03167fddf252ad1be2c89b69c2b068fc378daa952ba7f163c4a11628f55a4df523b3ef8360405161072591815260200190565b60405180910390a3505050565b6001600160a01b03821661075b57604051634b637e8f60e11b81525f600482015260240161048a565b610322825f8361060c565b5f6a636f6e736f6c652e6c6f6790505f5f835160208501845afa505050565b5f81518084528060208401602086015e5f602082860101526020601f19601f83011685010191505092915050565b602081525f6102e06020830184610785565b80356001600160a01b03811681146107db575f5ffd5b919050565b5f5f604083850312156107f1575f5ffd5b6107fa836107c5565b946020939093013593505050565b5f5f5f6060848603121561081a575f5ffd5b610823846107c5565b9250610831602085016107c5565b929592945050506040919091013590565b5f60208284031215610852575f5ffd5b5035919050565b5f60208284031215610869575f5ffd5b6102e0826107c5565b5f5f60408385031215610883575f5ffd5b61088c836107c5565b915061089a602084016107c5565b90509250929050565b600181811c908216806108b757607f821691505b6020821081036108d557634e487b7160e01b5f52602260045260245ffd5b50919050565b604081525f6108ed6040830185610785565b905060018060a01b03831660208301529392505050565b604081525f6109166040830185610785565b90508260208301529392505050565b808201808211156102e357634e487b7160e01b5f52601160045260245ffdfea26469706673582212203029c1f0bfe940fc2c1aa02d1e6e1d3a55adb6891e7406873886ee17e3e18f3f64736f6c634300081c0033",
  "linkReferences": {},
  "deployedLinkReferences": {},
  "immutableReferences": {},
  "inputSourceName": "project/contracts/token/Token.sol",
  "buildInfoId": "solc-0_8_28-999e25b680b5c68058f815d69dc73c02f771ab64"
}